{
  "address": "0xCf7Ed3AccA5a467e9e704C703E8D87F634fB0Fc9",
  "abi": [
    {
      "inputs": [
        {
          "internalType": "address",
          "name": "vrfCoordinatorV2",
          "type": "address"
        },
        {
          "internalType": "uint64",
          "name": "subscriptionId",
          "type": "uint64"
        },
        {
          "internalType": "bytes32",
          "name": "gasLane",
          "type": "bytes32"
        },
        {
          "internalType": "uint256",
          "name": "interval",
          "type": "uint256"
        },
        {
          "internalType": "uint256",
          "name": "entranceFee",
          "type": "uint256"
        },
        {
          "internalType": "uint32",
          "name": "callbackGasLimit",
          "type": "uint32"
        }
      ],
      "stateMutability": "nonpayable",
      "type": "constructor"
    },
    {
      "inputs": [
        {
          "internalType": "address",
          "name": "have",
          "type": "address"
        },
        {
          "internalType": "address",
          "name": "want",
          "type": "address"
        }
      ],
      "name": "OnlyCoordinatorCanFulfill",
      "type": "error"
    },
    {
      "inputs": [],
      "name": "Raffle__NotEnoughETHEntered",
      "type": "error"
    },
    {
      "inputs": [],
      "name": "Raffle__NotOpen",
      "type": "error"
    },
    {
      "inputs": [],
      "name": "Raffle__TransferFailed",
      "type": "error"
    },
    {
      "inputs": [
        {
          "internalType": "uint256",
          "name": "currentBalance",
          "type": "uint256"
        },
        {
          "internalType": "uint256",
          "name": "numPlayers",
          "type": "uint256"
        },
        {
          "internalType": "uint256",
          "name": "raffleState",
          "type": "uint256"
        }
      ],
      "name": "Raffle__UpkeepNotNeeded",
      "type": "error"
    },
    {
      "anonymous": false,
      "inputs": [
        {
          "indexed": true,
          "internalType": "address",
          "name": "player",
          "type": "address"
        }
      ],
      "name": "RaffleEnter",
      "type": "event"
    },
    {
      "anonymous": false,
      "inputs": [
        {
          "indexed": true,
          "internalType": "uint256",
          "name": "requestId",
          "type": "uint256"
        }
      ],
      "name": "RequestedRaffleWinner",
      "type": "event"
    },
    {
      "anonymous": false,
      "inputs": [
        {
          "indexed": true,
          "internalType": "address",
          "name": "winner",
          "type": "address"
        }
      ],
      "name": "WinnerPicked",
      "type": "event"
    },
    {
      "inputs": [
        {
          "internalType": "bytes",
          "name": "",
          "type": "bytes"
        }
      ],
      "name": "checkUpkeep",
      "outputs": [
        {
          "internalType": "bool",
          "name": "upkeepNeeded",
          "type": "bool"
        },
        {
          "internalType": "bytes",
          "name": "",
          "type": "bytes"
        }
      ],
      "stateMutability": "nonpayable",
      "type": "function"
    },
    {
      "inputs": [],
      "name": "enterRaffle",
      "outputs": [],
      "stateMutability": "payable",
      "type": "function"
    },
    {
      "inputs": [],
      "name": "getEntranceFee",
      "outputs": [
        {
          "internalType": "uint256",
          "name": "",
          "type": "uint256"
        }
      ],
      "stateMutability": "view",
      "type": "function"
    },
    {
      "inputs": [],
      "name": "getInterval",
      "outputs": [
        {
          "internalType": "uint256",
          "name": "",
          "type": "uint256"
        }
      ],
      "stateMutability": "view",
      "type": "function"
    },
    {
      "inputs": [],
      "name": "getLastTimeStamp",
      "outputs": [
        {
          "internalType": "uint256",
          "name": "",
          "type": "uint256"
        }
      ],
      "stateMutability": "view",
      "type": "function"
    },
    {
      "inputs": [],
      "name": "getNumWords",
      "outputs": [
        {
          "internalType": "uint256",
          "name": "",
          "type": "uint256"
        }
      ],
      "stateMutability": "pure",
      "type": "function"
    },
    {
      "inputs": [],
      "name": "getNumberOfPlayers",
      "outputs": [
        {
          "internalType": "uint256",
          "name": "",
          "type": "uint256"
        }
      ],
      "stateMutability": "view",
      "type": "function"
    },
    {
      "inputs": [
        {
          "internalType": "uint256",
          "name": "index",
          "type": "uint256"
        }
      ],
      "name": "getPlayer",
      "outputs": [
        {
          "internalType": "address",
          "name": "",
          "type": "address"
        }
      ],
      "stateMutability": "view",
      "type": "function"
    },
    {
      "inputs": [],
      "name": "getRaffleState",
      "outputs": [
        {
          "internalType": "enum Raffle.RaffleState",
          "name": "",
          "type": "uint8"
        }
      ],
      "stateMutability": "view",
      "type": "function"
    },
    {
      "inputs": [],
      "name": "getRecentWinner",
      "outputs": [
        {
          "internalType": "address",
          "name": "",
          "type": "address"
        }
      ],
      "stateMutability": "view",
      "type": "function"
    },
    {
      "inputs": [],
      "name": "getRequestConfirmations",
      "outputs": [
        {
          "internalType": "uint256",
          "name": "",
          "type": "uint256"
        }
      ],
      "stateMutability": "pure",
      "type": "function"
    },
    {
      "inputs": [],
      "name": "getSubscriptionId",
      "outputs": [
        {
          "internalType": "uint64",
          "name": "",
          "type": "uint64"
        }
      ],
      "stateMutability": "view",
      "type": "function"
    },
    {
      "inputs": [
        {
          "internalType": "bytes",
          "name": "",
          "type": "bytes"
        }
      ],
      "name": "performUpkeep",
      "outputs": [],
      "stateMutability": "nonpayable",
      "type": "function"
    },
    {
      "inputs": [
        {
          "internalType": "uint256",
          "name": "requestId",
          "type": "uint256"
        },
        {
          "internalType": "uint256[]",
          "name": "randomWords",
          "type": "uint256[]"
        }
      ],
      "name": "rawFulfillRandomWords",
      "outputs": [],
      "stateMutability": "nonpayable",
      "type": "function"
    }
  ],
  "transactionHash": "0xade3d9480cdb523ff82461cd56201f99b2e9dad8e6ae5a007d2738c6b890b86d",
  "args": [
    "0x5FbDB2315678afecb367f032d93F642f64180aa3",
    "1",
    "0xd89b2bf150e3b9e13446986e571fb9cab24b13cea0a43ea20a6049a85cc807cc",
    "30",
    "10000000000000000",
    "500000"
  ],
  "numDeployments": 1,
  "solcInputHash": "5dfbe6869f66ffdadac5b3159f4f12bb",
  "bytecode": "0x6101606040523480156200001257600080fd5b50604051620018d4380380620018d4833981810160405281019062000038919062000294565b858073ffffffffffffffffffffffffffffffffffffffff1660808173ffffffffffffffffffffffffffffffffffffffff1681525050508573ffffffffffffffffffffffffffffffffffffffff1660a08173ffffffffffffffffffffffffffffffffffffffff16815250508360e081815250508261012081815250508467ffffffffffffffff1660c08167ffffffffffffffff16815250508161014081815250506000600360006101000a81548160ff0219169083600181111562000101576200010062000330565b5b0217905550426000819055508063ffffffff166101008163ffffffff16815250505050505050506200035f565b600080fd5b600073ffffffffffffffffffffffffffffffffffffffff82169050919050565b6000620001608262000133565b9050919050565b620001728162000153565b81146200017e57600080fd5b50565b600081519050620001928162000167565b92915050565b600067ffffffffffffffff82169050919050565b620001b78162000198565b8114620001c357600080fd5b50565b600081519050620001d781620001ac565b92915050565b6000819050919050565b620001f281620001dd565b8114620001fe57600080fd5b50565b6000815190506200021281620001e7565b92915050565b6000819050919050565b6200022d8162000218565b81146200023957600080fd5b50565b6000815190506200024d8162000222565b92915050565b600063ffffffff82169050919050565b6200026e8162000253565b81146200027a57600080fd5b50565b6000815190506200028e8162000263565b92915050565b60008060008060008060c08789031215620002b457620002b36200012e565b5b6000620002c489828a0162000181565b9650506020620002d789828a01620001c6565b9550506040620002ea89828a0162000201565b9450506060620002fd89828a016200023c565b93505060806200031089828a016200023c565b92505060a06200032389828a016200027d565b9150509295509295509295565b7f4e487b7100000000000000000000000000000000000000000000000000000000600052602160045260246000fd5b60805160a05160c05160e0516101005161012051610140516114fe620003d660003960008181610340015261043d01526000818161082401526108d0015260006106e20152600061069e0152600081816106bf01526109010152600061066201526000818161037d01526103d101526114fe6000f3fe6080604052600436106100dd5760003560e01c80635f1b0fd81161007f578063c1c244e811610059578063c1c244e81461027e578063de3d9fb7146102a9578063e55ae4e8146102d4578063fd6673f514610311576100dd565b80635f1b0fd8146101ea5780636e04ff0d1461021557806391ad27b414610253576100dd565b80632cfcc539116100bb5780632cfcc539146101615780634585e33b1461016b578063473f1ddc1461019457806353a2c19a146101bf576100dd565b806309bc33a7146100e2578063115cbaf51461010d5780631fe543e314610138575b600080fd5b3480156100ee57600080fd5b506100f761033c565b6040516101049190610c6d565b60405180910390f35b34801561011957600080fd5b50610122610364565b60405161012f9190610cff565b60405180910390f35b34801561014457600080fd5b5061015f600480360381019061015a9190610eb3565b61037b565b005b61016961043b565b005b34801561017757600080fd5b50610192600480360381019061018d9190610f6a565b6105aa565b005b3480156101a057600080fd5b506101a961079b565b6040516101b69190610ff8565b60405180910390f35b3480156101cb57600080fd5b506101d46107c5565b6040516101e19190610c6d565b60405180910390f35b3480156101f657600080fd5b506101ff6107d4565b60405161020c9190610c6d565b60405180910390f35b34801561022157600080fd5b5061023c600480360381019061023791906110c8565b6107e1565b60405161024a9291906111ab565b60405180910390f35b34801561025f57600080fd5b506102686108cc565b6040516102759190610c6d565b60405180910390f35b34801561028a57600080fd5b506102936108f4565b6040516102a09190610c6d565b60405180910390f35b3480156102b557600080fd5b506102be6108fd565b6040516102cb91906111fe565b60405180910390f35b3480156102e057600080fd5b506102fb60048036038101906102f69190611219565b610925565b6040516103089190610ff8565b60405180910390f35b34801561031d57600080fd5b5061032661096d565b6040516103339190610c6d565b60405180910390f35b60007f0000000000000000000000000000000000000000000000000000000000000000905090565b6000600360009054906101000a900460ff16905090565b7f000000000000000000000000000000000000000000000000000000000000000073ffffffffffffffffffffffffffffffffffffffff163373ffffffffffffffffffffffffffffffffffffffff161461042d57337f00000000000000000000000000000000000000000000000000000000000000006040517f1cf993f4000000000000000000000000000000000000000000000000000000008152600401610424929190611246565b60405180910390fd5b610437828261097a565b5050565b7f0000000000000000000000000000000000000000000000000000000000000000341015610495576040517fbd4e069500000000000000000000000000000000000000000000000000000000815260040160405180910390fd5b600060018111156104a9576104a8610c88565b5b600360009054906101000a900460ff1660018111156104cb576104ca610c88565b5b14610502576040517f1425571c00000000000000000000000000000000000000000000000000000000815260040160405180910390fd5b6002339080600181540180825580915050600190039060005260206000200160009091909190916101000a81548173ffffffffffffffffffffffffffffffffffffffff021916908373ffffffffffffffffffffffffffffffffffffffff1602179055503373ffffffffffffffffffffffffffffffffffffffff167f0805e1d667bddb8a95f0f09880cf94f403fb596ce79928d9f29b74203ba284d460405160405180910390a2565b60006105c4604051806020016040528060008152506107e1565b509050806106335747600280549050600360009054906101000a900460ff1660018111156105f5576105f4610c88565b5b6040517f584327aa00000000000000000000000000000000000000000000000000000000815260040161062a9392919061126f565b60405180910390fd5b6001600360006101000a81548160ff0219169083600181111561065957610658610c88565b5b021790555060007f000000000000000000000000000000000000000000000000000000000000000073ffffffffffffffffffffffffffffffffffffffff16635d3b1d307f00000000000000000000000000000000000000000000000000000000000000007f000000000000000000000000000000000000000000000000000000000000000060037f000000000000000000000000000000000000000000000000000000000000000060016040518663ffffffff1660e01b81526004016107239594939291906112fb565b6020604051808303816000875af1158015610742573d6000803e3d6000fd5b505050506040513d601f19601f820116820180604052508101906107669190611363565b9050807fcd6e45c8998311cab7e9d4385596cac867e20a0587194b954fa3a731c93ce78b60405160405180910390a250505050565b6000600160009054906101000a900473ffffffffffffffffffffffffffffffffffffffff16905090565b6000600163ffffffff16905090565b6000600361ffff16905090565b600060606000600360009054906101000a900460ff16600181111561080957610808610c88565b5b6000600181111561081d5761081c610c88565b5b14905060007f00000000000000000000000000000000000000000000000000000000000000006000544261085191906113bf565b1190506000806002805490501190506000804711905060008380156108735750845b801561087c5750815b80156108855750825b9050806040518060400160405280600381526020017f3078300000000000000000000000000000000000000000000000000000000000815250965096505050505050915091565b60007f0000000000000000000000000000000000000000000000000000000000000000905090565b60008054905090565b60007f0000000000000000000000000000000000000000000000000000000000000000905090565b60006002828154811061093b5761093a6113f3565b5b9060005260206000200160009054906101000a900473ffffffffffffffffffffffffffffffffffffffff169050919050565b6000600280549050905090565b600060028054905082600081518110610996576109956113f3565b5b60200260200101516109a89190611451565b90506000600282815481106109c0576109bf6113f3565b5b9060005260206000200160009054906101000a900473ffffffffffffffffffffffffffffffffffffffff16905080600160006101000a81548173ffffffffffffffffffffffffffffffffffffffff021916908373ffffffffffffffffffffffffffffffffffffffff1602179055506000600360006101000a81548160ff02191690836001811115610a5457610a53610c88565b5b0217905550600067ffffffffffffffff811115610a7457610a73610d70565b5b604051908082528060200260200182016040528015610aa25781602001602082028036833780820191505090505b5060029080519060200190610ab8929190610bad565b504260008190555060008173ffffffffffffffffffffffffffffffffffffffff1647604051610ae6906114b3565b60006040518083038185875af1925050503d8060008114610b23576040519150601f19603f3d011682016040523d82523d6000602084013e610b28565b606091505b5050905080610b63576040517fa1d04b3900000000000000000000000000000000000000000000000000000000815260040160405180910390fd5b8173ffffffffffffffffffffffffffffffffffffffff167f5b690ec4a06fe979403046eaeea5b3ce38524683c3001f662c8b5a829632f7df60405160405180910390a25050505050565b828054828255906000526020600020908101928215610c26579160200282015b82811115610c255782518260006101000a81548173ffffffffffffffffffffffffffffffffffffffff021916908373ffffffffffffffffffffffffffffffffffffffff16021790555091602001919060010190610bcd565b5b509050610c339190610c37565b5090565b5b80821115610c50576000816000905550600101610c38565b5090565b6000819050919050565b610c6781610c54565b82525050565b6000602082019050610c826000830184610c5e565b92915050565b7f4e487b7100000000000000000000000000000000000000000000000000000000600052602160045260246000fd5b60028110610cc857610cc7610c88565b5b50565b6000819050610cd982610cb7565b919050565b6000610ce982610ccb565b9050919050565b610cf981610cde565b82525050565b6000602082019050610d146000830184610cf0565b92915050565b6000604051905090565b600080fd5b600080fd5b610d3781610c54565b8114610d4257600080fd5b50565b600081359050610d5481610d2e565b92915050565b600080fd5b6000601f19601f8301169050919050565b7f4e487b7100000000000000000000000000000000000000000000000000000000600052604160045260246000fd5b610da882610d5f565b810181811067ffffffffffffffff82111715610dc757610dc6610d70565b5b80604052505050565b6000610dda610d1a565b9050610de68282610d9f565b919050565b600067ffffffffffffffff821115610e0657610e05610d70565b5b602082029050602081019050919050565b600080fd5b6000610e2f610e2a84610deb565b610dd0565b90508083825260208201905060208402830185811115610e5257610e51610e17565b5b835b81811015610e7b5780610e678882610d45565b845260208401935050602081019050610e54565b5050509392505050565b600082601f830112610e9a57610e99610d5a565b5b8135610eaa848260208601610e1c565b91505092915050565b60008060408385031215610eca57610ec9610d24565b5b6000610ed885828601610d45565b925050602083013567ffffffffffffffff811115610ef957610ef8610d29565b5b610f0585828601610e85565b9150509250929050565b600080fd5b60008083601f840112610f2a57610f29610d5a565b5b8235905067ffffffffffffffff811115610f4757610f46610f0f565b5b602083019150836001820283011115610f6357610f62610e17565b5b9250929050565b60008060208385031215610f8157610f80610d24565b5b600083013567ffffffffffffffff811115610f9f57610f9e610d29565b5b610fab85828601610f14565b92509250509250929050565b600073ffffffffffffffffffffffffffffffffffffffff82169050919050565b6000610fe282610fb7565b9050919050565b610ff281610fd7565b82525050565b600060208201905061100d6000830184610fe9565b92915050565b600080fd5b600067ffffffffffffffff82111561103357611032610d70565b5b61103c82610d5f565b9050602081019050919050565b82818337600083830152505050565b600061106b61106684611018565b610dd0565b90508281526020810184848401111561108757611086611013565b5b611092848285611049565b509392505050565b600082601f8301126110af576110ae610d5a565b5b81356110bf848260208601611058565b91505092915050565b6000602082840312156110de576110dd610d24565b5b600082013567ffffffffffffffff8111156110fc576110fb610d29565b5b6111088482850161109a565b91505092915050565b60008115159050919050565b61112681611111565b82525050565b600081519050919050565b600082825260208201905092915050565b60005b8381101561116657808201518184015260208101905061114b565b60008484015250505050565b600061117d8261112c565b6111878185611137565b9350611197818560208601611148565b6111a081610d5f565b840191505092915050565b60006040820190506111c0600083018561111d565b81810360208301526111d28184611172565b90509392505050565b600067ffffffffffffffff82169050919050565b6111f8816111db565b82525050565b600060208201905061121360008301846111ef565b92915050565b60006020828403121561122f5761122e610d24565b5b600061123d84828501610d45565b91505092915050565b600060408201905061125b6000830185610fe9565b6112686020830184610fe9565b9392505050565b60006060820190506112846000830186610c5e565b6112916020830185610c5e565b61129e6040830184610c5e565b949350505050565b6000819050919050565b6112b9816112a6565b82525050565b600061ffff82169050919050565b6112d6816112bf565b82525050565b600063ffffffff82169050919050565b6112f5816112dc565b82525050565b600060a08201905061131060008301886112b0565b61131d60208301876111ef565b61132a60408301866112cd565b61133760608301856112ec565b61134460808301846112ec565b9695505050505050565b60008151905061135d81610d2e565b92915050565b60006020828403121561137957611378610d24565b5b60006113878482850161134e565b91505092915050565b7f4e487b7100000000000000000000000000000000000000000000000000000000600052601160045260246000fd5b60006113ca82610c54565b91506113d583610c54565b92508282039050818111156113ed576113ec611390565b5b92915050565b7f4e487b7100000000000000000000000000000000000000000000000000000000600052603260045260246000fd5b7f4e487b7100000000000000000000000000000000000000000000000000000000600052601260045260246000fd5b600061145c82610c54565b915061146783610c54565b92508261147757611476611422565b5b828206905092915050565b600081905092915050565b50565b600061149d600083611482565b91506114a88261148d565b600082019050919050565b60006114be82611490565b915081905091905056fea264697066735822122072502225a16ec8a8b569ec0040c9b3b17fd66b01cba926b95ea1ea91b0ab945964736f6c63430008110033",
  "devdoc": {
    "author": "jkaterina",
    "details": "This implements the Chainlink VRF V2 & Chainlink Keepers",
    "kind": "dev",
    "methods": {
      "checkUpkeep(bytes)": {
        "details": "This is the function that the Chainlink Keeper nodes call they look for `upkeepNeeded` to return True. the following should be true for this to return true: 1. The time interval has passed between raffle runs. 2. The lottery is open (at least one player). 3. The contract has ETH. 4. Implicity, your subscription is funded with LINK."
      }
    },
    "title": "A sample Raffle Contract",
    "version": 1
  },
  "userdoc": {
    "kind": "user",
    "methods": {
      "getRaffleState()": {
        "notice": "Getter Functions "
      }
    },
    "notice": "This contract is for creating a sample raffle contract",
    "version": 1
  },
  "storageLayout": {
    "storage": [
      {
        "astId": 888,
        "contract": "contracts/Raffle.sol:Raffle",
        "label": "s_lastTimeStamp",
        "offset": 0,
        "slot": "0",
        "type": "t_uint256"
      },
      {
        "astId": 890,
        "contract": "contracts/Raffle.sol:Raffle",
        "label": "s_recentWinner",
        "offset": 0,
        "slot": "1",
        "type": "t_address"
      },
      {
        "astId": 893,
        "contract": "contracts/Raffle.sol:Raffle",
        "label": "s_players",
        "offset": 0,
        "slot": "2",
        "type": "t_array(t_address_payable)dyn_storage"
      },
      {
        "astId": 896,
        "contract": "contracts/Raffle.sol:Raffle",
        "label": "s_raffleState",
        "offset": 0,
        "slot": "3",
        "type": "t_enum(RaffleState)867"
      }
    ],
    "types": {
      "t_address": {
        "encoding": "inplace",
        "label": "address",
        "numberOfBytes": "20"
      },
      "t_address_payable": {
        "encoding": "inplace",
        "label": "address payable",
        "numberOfBytes": "20"
      },
      "t_array(t_address_payable)dyn_storage": {
        "base": "t_address_payable",
        "encoding": "dynamic_array",
        "label": "address payable[]",
        "numberOfBytes": "32"
      },
      "t_enum(RaffleState)867": {
        "encoding": "inplace",
        "label": "enum Raffle.RaffleState",
        "numberOfBytes": "1"
      },
      "t_uint256": {
        "encoding": "inplace",
        "label": "uint256",
        "numberOfBytes": "32"
      }
    }
  }
}